{
  "contractName": "Aggregator",
  "abi": [
    {
      "inputs": [],
      "stateMutability": "nonpayable",
      "type": "constructor"
    },
    {
      "anonymous": false,
      "inputs": [
        {
          "indexed": false,
          "internalType": "address",
          "name": "owner",
          "type": "address"
        },
        {
          "indexed": false,
          "internalType": "uint256",
          "name": "amount",
          "type": "uint256"
        },
        {
          "indexed": false,
          "internalType": "address",
          "name": "depositTo",
          "type": "address"
        }
      ],
      "name": "Deposit",
      "type": "event"
    },
    {
      "anonymous": false,
      "inputs": [
        {
          "indexed": false,
          "internalType": "address",
          "name": "owner",
          "type": "address"
        },
        {
          "indexed": false,
          "internalType": "uint256",
          "name": "amount",
          "type": "uint256"
        },
        {
          "indexed": false,
          "internalType": "address",
          "name": "depositTo",
          "type": "address"
        }
      ],
      "name": "Rebalance",
      "type": "event"
    },
    {
      "anonymous": false,
      "inputs": [
        {
          "indexed": false,
          "internalType": "address",
          "name": "owner",
          "type": "address"
        },
        {
          "indexed": false,
          "internalType": "uint256",
          "name": "amount",
          "type": "uint256"
        },
        {
          "indexed": false,
          "internalType": "address",
          "name": "withdrawFrom",
          "type": "address"
        }
      ],
      "name": "Withdraw",
      "type": "event"
    },
    {
      "inputs": [],
      "name": "amountDeposited",
      "outputs": [
        {
          "internalType": "uint256",
          "name": "",
          "type": "uint256"
        }
      ],
      "stateMutability": "view",
      "type": "function",
      "constant": true
    },
    {
      "inputs": [],
      "name": "locationOfFunds",
      "outputs": [
        {
          "internalType": "address",
          "name": "",
          "type": "address"
        }
      ],
      "stateMutability": "view",
      "type": "function",
      "constant": true
    },
    {
      "inputs": [],
      "name": "name",
      "outputs": [
        {
          "internalType": "string",
          "name": "",
          "type": "string"
        }
      ],
      "stateMutability": "view",
      "type": "function",
      "constant": true
    },
    {
      "inputs": [],
      "name": "owner",
      "outputs": [
        {
          "internalType": "address",
          "name": "",
          "type": "address"
        }
      ],
      "stateMutability": "view",
      "type": "function",
      "constant": true
    },
    {
      "inputs": [
        {
          "internalType": "uint256",
          "name": "_amount",
          "type": "uint256"
        },
        {
          "internalType": "uint256",
          "name": "_compAPY",
          "type": "uint256"
        },
        {
          "internalType": "uint256",
          "name": "_aaveAPY",
          "type": "uint256"
        }
      ],
      "name": "deposit",
      "outputs": [],
      "stateMutability": "nonpayable",
      "type": "function"
    },
    {
      "inputs": [],
      "name": "withdraw",
      "outputs": [],
      "stateMutability": "nonpayable",
      "type": "function"
    },
    {
      "inputs": [
        {
          "internalType": "uint256",
          "name": "_compAPY",
          "type": "uint256"
        },
        {
          "internalType": "uint256",
          "name": "_aaveAPY",
          "type": "uint256"
        }
      ],
      "name": "rebalance",
      "outputs": [],
      "stateMutability": "nonpayable",
      "type": "function"
    },
    {
      "inputs": [],
      "name": "balanceOfContract",
      "outputs": [
        {
          "internalType": "uint256",
          "name": "",
          "type": "uint256"
        }
      ],
      "stateMutability": "view",
      "type": "function",
      "constant": true
    },
    {
      "inputs": [],
      "name": "balanceWhere",
      "outputs": [
        {
          "internalType": "address",
          "name": "",
          "type": "address"
        }
      ],
      "stateMutability": "view",
      "type": "function",
      "constant": true
    }
  ],
  "bytecode": "0x60806040526040518060400160405280601081526020017f5969656c642041676772656761746f72000000000000000000000000000000008152506000908051906020019062000051929190620001fb565b50736b175474e89094c44da98b954eedeac495271d0f600460006101000a81548173ffffffffffffffffffffffffffffffffffffffff021916908373ffffffffffffffffffffffffffffffffffffffff160217905550735d3a536e4d6dbd6114cc1ead35777bab948e3643600560006101000a81548173ffffffffffffffffffffffffffffffffffffffff021916908373ffffffffffffffffffffffffffffffffffffffff16021790555073028171bca77440897b824ca71d1c56cac55b68a3600660006101000a81548173ffffffffffffffffffffffffffffffffffffffff021916908373ffffffffffffffffffffffffffffffffffffffff160217905550737d2768de32b0b80b7a3454c06bdac94a69ddc7a9600760006101000a81548173ffffffffffffffffffffffffffffffffffffffff021916908373ffffffffffffffffffffffffffffffffffffffff160217905550348015620001b357600080fd5b5033600160006101000a81548173ffffffffffffffffffffffffffffffffffffffff021916908373ffffffffffffffffffffffffffffffffffffffff16021790555062000310565b8280546200020990620002da565b90600052602060002090601f0160209004810192826200022d576000855562000279565b82601f106200024857805160ff191683800117855562000279565b8280016001018555821562000279579182015b82811115620002785782518255916020019190600101906200025b565b5b5090506200028891906200028c565b5090565b5b80821115620002a75760008160009055506001016200028d565b5090565b7f4e487b7100000000000000000000000000000000000000000000000000000000600052602260045260246000fd5b60006002820490506001821680620002f357607f821691505b602082108114156200030a5762000309620002ab565b5b50919050565b61189380620003206000396000f3fe608060405234801561001057600080fd5b50600436106100925760003560e01c80638f527d7c116100665780638f527d7c146100f9578063b035acb214610117578063df8879b814610135578063e6c7c45614610151578063f86ccd411461016f57610092565b8062aeef8a1461009757806306fdde03146100b35780633ccfd60b146100d15780638da5cb5b146100db575b600080fd5b6100b160048036038101906100ac91906113cd565b61018d565b005b6100bb610416565b6040516100c891906114b9565b60405180910390f35b6100d96104a4565b005b6100e3610752565b6040516100f0919061151c565b60405180910390f35b610101610778565b60405161010e919061151c565b60405180910390f35b61011f6107a2565b60405161012c919061151c565b60405180910390f35b61014f600480360381019061014a9190611537565b6107c8565b005b610159610c2c565b6040516101669190611586565b60405180910390f35b610177610deb565b6040516101849190611586565b60405180910390f35b600160009054906101000a900473ffffffffffffffffffffffffffffffffffffffff1673ffffffffffffffffffffffffffffffffffffffff163373ffffffffffffffffffffffffffffffffffffffff16146101e757600080fd5b600083116101f457600080fd5b6000600354111561020a5761020982826107c8565b5b600460009054906101000a900473ffffffffffffffffffffffffffffffffffffffff1673ffffffffffffffffffffffffffffffffffffffff166323b872dd3330866040518463ffffffff1660e01b8152600401610269939291906115a1565b6020604051808303816000875af1158015610288573d6000803e3d6000fd5b505050506040513d601f19601f820116820180604052508101906102ac9190611610565b50826003546102bb919061166c565b600381905550808211156103465760006102d484610df1565b146102de57600080fd5b600560009054906101000a900473ffffffffffffffffffffffffffffffffffffffff16600260006101000a81548173ffffffffffffffffffffffffffffffffffffffff021916908373ffffffffffffffffffffffffffffffffffffffff1602179055506103b4565b61034f83610f69565b50600760009054906101000a900473ffffffffffffffffffffffffffffffffffffffff16600260006101000a81548173ffffffffffffffffffffffffffffffffffffffff021916908373ffffffffffffffffffffffffffffffffffffffff1602179055505b7fe31c7b8d08ee7db0afa68782e1028ef92305caeea8626633ad44d413e30f6b2f3384600260009054906101000a900473ffffffffffffffffffffffffffffffffffffffff16604051610409939291906116c2565b60405180910390a1505050565b6000805461042390611728565b80601f016020809104026020016040519081016040528092919081815260200182805461044f90611728565b801561049c5780601f106104715761010080835404028352916020019161049c565b820191906000526020600020905b81548152906001019060200180831161047f57829003601f168201915b505050505081565b600160009054906101000a900473ffffffffffffffffffffffffffffffffffffffff1673ffffffffffffffffffffffffffffffffffffffff163373ffffffffffffffffffffffffffffffffffffffff16146104fe57600080fd5b60006003541161050d57600080fd5b600560009054906101000a900473ffffffffffffffffffffffffffffffffffffffff1673ffffffffffffffffffffffffffffffffffffffff16600260009054906101000a900473ffffffffffffffffffffffffffffffffffffffff1673ffffffffffffffffffffffffffffffffffffffff16141561059e57600061058f6110f1565b1461059957600080fd5b6105a7565b6105a661123c565b5b6000600460009054906101000a900473ffffffffffffffffffffffffffffffffffffffff1673ffffffffffffffffffffffffffffffffffffffff166370a08231306040518263ffffffff1660e01b8152600401610604919061151c565b602060405180830381865afa158015610621573d6000803e3d6000fd5b505050506040513d601f19601f82011682018060405250810190610645919061176f565b9050600460009054906101000a900473ffffffffffffffffffffffffffffffffffffffff1673ffffffffffffffffffffffffffffffffffffffff1663a9059cbb33836040518363ffffffff1660e01b81526004016106a492919061179c565b6020604051808303816000875af11580156106c3573d6000803e3d6000fd5b505050506040513d601f19601f820116820180604052508101906106e79190611610565b507f56c54ba9bd38d8fd62012e42c7ee564519b09763c426d331b3661b537ead19b233600354600260009054906101000a900473ffffffffffffffffffffffffffffffffffffffff1660405161073f939291906116c2565b60405180910390a1600060038190555050565b600160009054906101000a900473ffffffffffffffffffffffffffffffffffffffff1681565b6000600260009054906101000a900473ffffffffffffffffffffffffffffffffffffffff16905090565b600260009054906101000a900473ffffffffffffffffffffffffffffffffffffffff1681565b600160009054906101000a900473ffffffffffffffffffffffffffffffffffffffff1673ffffffffffffffffffffffffffffffffffffffff163373ffffffffffffffffffffffffffffffffffffffff161461082257600080fd5b60006003541161083157600080fd5b600081831180156108b25750600560009054906101000a900473ffffffffffffffffffffffffffffffffffffffff1673ffffffffffffffffffffffffffffffffffffffff16600260009054906101000a900473ffffffffffffffffffffffffffffffffffffffff1673ffffffffffffffffffffffffffffffffffffffff1614155b15610a2e576108bf61123c565b600460009054906101000a900473ffffffffffffffffffffffffffffffffffffffff1673ffffffffffffffffffffffffffffffffffffffff166370a08231306040518263ffffffff1660e01b815260040161091a919061151c565b602060405180830381865afa158015610937573d6000803e3d6000fd5b505050506040513d601f19601f8201168201806040525081019061095b919061176f565b905061096681610df1565b50600560009054906101000a900473ffffffffffffffffffffffffffffffffffffffff16600260006101000a81548173ffffffffffffffffffffffffffffffffffffffff021916908373ffffffffffffffffffffffffffffffffffffffff1602179055507fbe7cdf13e1084b20fe6aadbf0625144b7a36881e5578f3222aab900d72d904c133600354600260009054906101000a900473ffffffffffffffffffffffffffffffffffffffff16604051610a21939291906116c2565b60405180910390a1610c27565b8282118015610aad5750600760009054906101000a900473ffffffffffffffffffffffffffffffffffffffff1673ffffffffffffffffffffffffffffffffffffffff16600260009054906101000a900473ffffffffffffffffffffffffffffffffffffffff1673ffffffffffffffffffffffffffffffffffffffff1614155b15610c2657610aba6110f1565b50600460009054906101000a900473ffffffffffffffffffffffffffffffffffffffff1673ffffffffffffffffffffffffffffffffffffffff166370a08231306040518263ffffffff1660e01b8152600401610b16919061151c565b602060405180830381865afa158015610b33573d6000803e3d6000fd5b505050506040513d601f19601f82011682018060405250810190610b57919061176f565b9050610b6281610f69565b50600760009054906101000a900473ffffffffffffffffffffffffffffffffffffffff16600260006101000a81548173ffffffffffffffffffffffffffffffffffffffff021916908373ffffffffffffffffffffffffffffffffffffffff1602179055507fbe7cdf13e1084b20fe6aadbf0625144b7a36881e5578f3222aab900d72d904c133600354600260009054906101000a900473ffffffffffffffffffffffffffffffffffffffff16604051610c1d939291906116c2565b60405180910390a15b5b505050565b6000600560009054906101000a900473ffffffffffffffffffffffffffffffffffffffff1673ffffffffffffffffffffffffffffffffffffffff16600260009054906101000a900473ffffffffffffffffffffffffffffffffffffffff1673ffffffffffffffffffffffffffffffffffffffff161415610d4957600560009054906101000a900473ffffffffffffffffffffffffffffffffffffffff1673ffffffffffffffffffffffffffffffffffffffff166370a08231306040518263ffffffff1660e01b8152600401610d01919061151c565b602060405180830381865afa158015610d1e573d6000803e3d6000fd5b505050506040513d601f19601f82011682018060405250810190610d42919061176f565b9050610de8565b600660009054906101000a900473ffffffffffffffffffffffffffffffffffffffff1673ffffffffffffffffffffffffffffffffffffffff166370a08231306040518263ffffffff1660e01b8152600401610da4919061151c565b602060405180830381865afa158015610dc1573d6000803e3d6000fd5b505050506040513d601f19601f82011682018060405250810190610de5919061176f565b90505b90565b60035481565b6000600460009054906101000a900473ffffffffffffffffffffffffffffffffffffffff1673ffffffffffffffffffffffffffffffffffffffff1663095ea7b3600560009054906101000a900473ffffffffffffffffffffffffffffffffffffffff16846040518363ffffffff1660e01b8152600401610e7292919061179c565b6020604051808303816000875af1158015610e91573d6000803e3d6000fd5b505050506040513d601f19601f82011682018060405250810190610eb59190611610565b610ebe57600080fd5b6000600560009054906101000a900473ffffffffffffffffffffffffffffffffffffffff1673ffffffffffffffffffffffffffffffffffffffff1663a0712d68846040518263ffffffff1660e01b8152600401610f1b9190611586565b6020604051808303816000875af1158015610f3a573d6000803e3d6000fd5b505050506040513d601f19601f82011682018060405250810190610f5e919061176f565b905080915050919050565b6000600460009054906101000a900473ffffffffffffffffffffffffffffffffffffffff1673ffffffffffffffffffffffffffffffffffffffff1663095ea7b3600760009054906101000a900473ffffffffffffffffffffffffffffffffffffffff16846040518363ffffffff1660e01b8152600401610fea92919061179c565b6020604051808303816000875af1158015611009573d6000803e3d6000fd5b505050506040513d601f19601f8201168201806040525081019061102d9190611610565b61103657600080fd5b600760009054906101000a900473ffffffffffffffffffffffffffffffffffffffff1673ffffffffffffffffffffffffffffffffffffffff1663e8eda9df600460009054906101000a900473ffffffffffffffffffffffffffffffffffffffff16843060006040518563ffffffff1660e01b81526004016110ba9493929190611818565b600060405180830381600087803b1580156110d457600080fd5b505af11580156110e8573d6000803e3d6000fd5b50505050919050565b600080600560009054906101000a900473ffffffffffffffffffffffffffffffffffffffff1673ffffffffffffffffffffffffffffffffffffffff166370a08231306040518263ffffffff1660e01b815260040161114f919061151c565b602060405180830381865afa15801561116c573d6000803e3d6000fd5b505050506040513d601f19601f82011682018060405250810190611190919061176f565b90506000600560009054906101000a900473ffffffffffffffffffffffffffffffffffffffff1673ffffffffffffffffffffffffffffffffffffffff1663db006a75836040518263ffffffff1660e01b81526004016111ef9190611586565b6020604051808303816000875af115801561120e573d6000803e3d6000fd5b505050506040513d601f19601f82011682018060405250810190611232919061176f565b9050809250505090565b6000600660009054906101000a900473ffffffffffffffffffffffffffffffffffffffff1673ffffffffffffffffffffffffffffffffffffffff166370a08231306040518263ffffffff1660e01b8152600401611299919061151c565b602060405180830381865afa1580156112b6573d6000803e3d6000fd5b505050506040513d601f19601f820116820180604052508101906112da919061176f565b9050600760009054906101000a900473ffffffffffffffffffffffffffffffffffffffff1673ffffffffffffffffffffffffffffffffffffffff166369328dec600460009054906101000a900473ffffffffffffffffffffffffffffffffffffffff1683306040518463ffffffff1660e01b815260040161135d939291906116c2565b600060405180830381600087803b15801561137757600080fd5b505af115801561138b573d6000803e3d6000fd5b5050505050565b600080fd5b6000819050919050565b6113aa81611397565b81146113b557600080fd5b50565b6000813590506113c7816113a1565b92915050565b6000806000606084860312156113e6576113e5611392565b5b60006113f4868287016113b8565b9350506020611405868287016113b8565b9250506040611416868287016113b8565b9150509250925092565b600081519050919050565b600082825260208201905092915050565b60005b8381101561145a57808201518184015260208101905061143f565b83811115611469576000848401525b50505050565b6000601f19601f8301169050919050565b600061148b82611420565b611495818561142b565b93506114a581856020860161143c565b6114ae8161146f565b840191505092915050565b600060208201905081810360008301526114d38184611480565b905092915050565b600073ffffffffffffffffffffffffffffffffffffffff82169050919050565b6000611506826114db565b9050919050565b611516816114fb565b82525050565b6000602082019050611531600083018461150d565b92915050565b6000806040838503121561154e5761154d611392565b5b600061155c858286016113b8565b925050602061156d858286016113b8565b9150509250929050565b61158081611397565b82525050565b600060208201905061159b6000830184611577565b92915050565b60006060820190506115b6600083018661150d565b6115c3602083018561150d565b6115d06040830184611577565b949350505050565b60008115159050919050565b6115ed816115d8565b81146115f857600080fd5b50565b60008151905061160a816115e4565b92915050565b60006020828403121561162657611625611392565b5b6000611634848285016115fb565b91505092915050565b7f4e487b7100000000000000000000000000000000000000000000000000000000600052601160045260246000fd5b600061167782611397565b915061168283611397565b9250827fffffffffffffffffffffffffffffffffffffffffffffffffffffffffffffffff038211156116b7576116b661163d565b5b828201905092915050565b60006060820190506116d7600083018661150d565b6116e46020830185611577565b6116f1604083018461150d565b949350505050565b7f4e487b7100000000000000000000000000000000000000000000000000000000600052602260045260246000fd5b6000600282049050600182168061174057607f821691505b60208210811415611754576117536116f9565b5b50919050565b600081519050611769816113a1565b92915050565b60006020828403121561178557611784611392565b5b60006117938482850161175a565b91505092915050565b60006040820190506117b1600083018561150d565b6117be6020830184611577565b9392505050565b6000819050919050565b600061ffff82169050919050565b6000819050919050565b60006118026117fd6117f8846117c5565b6117dd565b6117cf565b9050919050565b611812816117e7565b82525050565b600060808201905061182d600083018761150d565b61183a6020830186611577565b611847604083018561150d565b6118546060830184611809565b9594505050505056fea264697066735822122038c356c6bfcacd2dbee327315f42f6d752c0d5e5e8624a92018663195abc9ab264736f6c634300080b0033",
  "immutableReferences": {},
  "source": "pragma solidity ^0.8.11;\n\n// Interface for ERC20 DAI contract\ninterface DAI {\n    function approve(address, uint256) external returns (bool);\n\n    function transfer(address, uint256) external returns (bool);\n\n    function transferFrom(\n        address,\n        address,\n        uint256\n    ) external returns (bool);\n\n    function balanceOf(address) external view returns (uint256);\n}\n\n// Interface for Compound's cDAI contract\ninterface cDAI {\n    function mint(uint256) external returns (uint256);\n\n    function redeem(uint256) external returns (uint256);\n\n    function supplyRatePerBlock() external returns (uint256);\n\n    function balanceOf(address) external view returns (uint256);\n}\n\ninterface aDAI {\n    function balanceOf(address) external view returns (uint256);\n}\n\n// Interface for Aave's lending pool contract\ninterface AaveLendingPool {\n    function deposit(\n        address asset,\n        uint256 amount,\n        address onBehalfOf,\n        uint16 referralCode\n    ) external;\n\n    function withdraw(\n        address asset,\n        uint256 amount,\n        address to\n    ) external;\n\n    function getReserveData(address asset)\n        external\n        returns (\n            uint256 configuration,\n            uint128 liquidityIndex,\n            uint128 variableBorrowIndex,\n            uint128 currentLiquidityRate,\n            uint128 currentVariableBorrowRate,\n            uint128 currentStableBorrowRate,\n            uint40 lastUpdateTimestamp,\n            address aTokenAddress,\n            address stableDebtTokenAddress,\n            address variableDebtTokenAddress,\n            address interestRateStrategyAddress,\n            uint8 id\n        );\n}\n\ncontract Aggregator {\n    // Variables\n    string public name = \"Yield Aggregator\";\n    address public owner;\n    address public locationOfFunds; // Keep track of where the user balance is stored\n    uint256 public amountDeposited;\n\n    DAI dai = DAI(0x6B175474E89094C44Da98b954EedeAC495271d0F);\n    cDAI cDai = cDAI(0x5d3a536E4D6DbD6114cc1Ead35777bAB948E3643);\n    aDAI aDai = aDAI(0x028171bCA77440897B824Ca71D1c56caC55b68A3);\n    AaveLendingPool aaveLendingPool =\n        AaveLendingPool(0x7d2768dE32b0b80b7a3454c06BdAc94A69DDc7A9);\n\n    // Events\n    event Deposit(address owner, uint256 amount, address depositTo);\n    event Withdraw(address owner, uint256 amount, address withdrawFrom);\n    event Rebalance(address owner, uint256 amount, address depositTo);\n\n    modifier onlyOwner() {\n        require(msg.sender == owner);\n        _;\n    }\n\n    // Constructor\n    constructor() {\n        owner = msg.sender;\n    }\n\n    // Functions\n\n    function deposit(\n        uint256 _amount,\n        uint256 _compAPY,\n        uint256 _aaveAPY\n    ) public onlyOwner {\n        require(_amount > 0);\n\n        // Rebalance in the case of a protocol with the higher rate after their initial deposit,\n        // is no longer the higher interest rate during this deposit...\n        if (amountDeposited > 0) {\n            rebalance(_compAPY, _aaveAPY);\n        }\n\n        dai.transferFrom(msg.sender, address(this), _amount);\n        amountDeposited = amountDeposited + _amount;\n\n        // Compare interest rates\n        if (_compAPY > _aaveAPY) {\n            // Deposit into Compound\n            require(_depositToCompound(_amount) == 0);\n\n            // Update location\n            locationOfFunds = address(cDai);\n        } else {\n            // Deposit into Aave\n            _depositToAave(_amount);\n\n            // Update location\n            locationOfFunds = address(aaveLendingPool);\n        }\n\n        // Emit Deposit event\n        emit Deposit(msg.sender, _amount, locationOfFunds);\n    }\n\n    function withdraw() public onlyOwner {\n        require(amountDeposited > 0);\n\n        // Determine where the user funds are stored\n        if (locationOfFunds == address(cDai)) {\n            require(_withdrawFromCompound() == 0);\n        } else {\n            // Withdraw from Aave\n            _withdrawFromAave();\n        }\n\n        // Once we have the funds, transfer back to owner\n        uint256 balance = dai.balanceOf(address(this));\n        dai.transfer(msg.sender, balance);\n\n        emit Withdraw(msg.sender, amountDeposited, locationOfFunds);\n\n        // Reset user balance\n        amountDeposited = 0;\n    }\n\n    function rebalance(uint256 _compAPY, uint256 _aaveAPY) public onlyOwner {\n        // Make sure funds are already deposited...\n        require(amountDeposited > 0);\n\n        uint256 balance;\n\n        // Compare interest rates\n        if ((_compAPY > _aaveAPY) && (locationOfFunds != address(cDai))) {\n            // If compoundRate is greater than aaveRate, and the current\n            // location of user funds is not in compound, then we transfer funds.\n\n            _withdrawFromAave();\n\n            balance = dai.balanceOf(address(this));\n\n            _depositToCompound(balance);\n\n            // Update location\n            locationOfFunds = address(cDai);\n\n            emit Rebalance(msg.sender, amountDeposited, locationOfFunds);\n        } else if (\n            (_aaveAPY > _compAPY) &&\n            (locationOfFunds != address(aaveLendingPool))\n        ) {\n            // If aaveRate is greater than compoundRate, and the current\n            // location of user funds is not in aave, then we transfer funds.\n\n            _withdrawFromCompound();\n\n            balance = dai.balanceOf(address(this));\n\n            _depositToAave(balance);\n\n            // Update location\n            locationOfFunds = address(aaveLendingPool);\n\n            emit Rebalance(msg.sender, amountDeposited, locationOfFunds);\n        }\n    }\n\n    function _depositToCompound(uint256 _amount) internal returns (uint256) {\n        require(dai.approve(address(cDai), _amount));\n\n        uint256 result = cDai.mint(_amount);\n        return result;\n    }\n\n    function _withdrawFromCompound() internal returns (uint256) {\n        uint256 balance = cDai.balanceOf(address(this));\n        uint256 result = cDai.redeem(balance);\n        return result;\n    }\n\n    function _depositToAave(uint256 _amount) internal returns (uint256) {\n        require(dai.approve(address(aaveLendingPool), _amount));\n        aaveLendingPool.deposit(address(dai), _amount, address(this), 0);\n    }\n\n    function _withdrawFromAave() internal {\n        uint256 balance = aDai.balanceOf(address(this));\n        aaveLendingPool.withdraw(address(dai), balance, address(this));\n    }\n\n    // ---\n\n    function balanceOfContract() public view returns (uint256) {\n        if (locationOfFunds == address(cDai)) {\n            return cDai.balanceOf(address(this));\n        } else {\n            return aDai.balanceOf(address(this));\n        }\n    }\n\n    function balanceWhere() public view returns (address) {\n        return locationOfFunds;\n    }\n}\n",
  "sourcePath": "/Users/minjaelee/Documents/ERC-20/code/yield-aggregator/src/contracts/Aggregator.sol",
  "compiler": {
    "name": "solc",
    "version": "0.8.11+commit.d7f03943.Emscripten.clang"
  },
  "schemaVersion": "3.4.3",
  "updatedAt": "2022-03-11T14:38:35.950Z",
  "networkType": "ethereum",
  "devdoc": {
    "kind": "dev",
    "methods": {},
    "version": 1
  },
  "userdoc": {
    "kind": "user",
    "methods": {},
    "version": 1
  }
}